:0A0B25004079243019120278001004
:0F0AF2000211270F020F03E8020D000001080098
:090B2F00D290D291D292D293220D
:100AD500EE7019EF14600D14600D14600D24037091
:0D0AE5000BC29022C29122C29222C2932223
:0F0B0200120B2FED900B2593F5807E00020AD584
:10088C00751E01850F1F8510207521048E228F2364
:10089C00D3EF9512EE95115055EF4E7007AD077FC3
:0408AC0001020B0238
:1008B000AC1FAD20AE22AF231208FB8F24E52460CD
:1008C00003E4F51EAE22AF23AC1FAD201208FB8C53
:1008D000228D23E5247004E51E7007AD24AF21129C
:1008E0000B02AE1FAF207C007D0A1208FB8E1F8F0B
:0308F000201521AF
:0708F300E521C3940150B69A
:0108FA0022DB
:10095000751301AB10AA0F7514038E158F16D3EF04
:070960009512EE9511503ACB
:10096700AE15AF16AD03AC021208FB8F17AE15AF6D
:1009770016AD03AC021208FB8C158D1674092514ED
:10098700F8A6177C007D0AAF03AE021208FBAA0681
:08099700AB07E5146004151420
:02099F0080C610
:0109A1002233
:100A8F007F0A7E00E4FDFCC3ED9FEC9E50F67425BB
:100A9F002DF582740B3CF583E493F5800DBD0001B9
:030AAF000C80E4D4
:030B38008F902279
:0A0B1100E4F580F590F5A0F5B022A0
:100AB200EF250EF50EEE350DF50DC3E50E9512E59B
:100AC2000D9511400685110D85120EAF0EAE0D1259
:030AD200095022A6
:100A6B00D2B8C2B9758950758C65E4F58AD28CD22F
:100A7B00A9C2B9758DFF758BFFD2AFD28ED2A8D21A
:040A8B00ABD2BB220D
:03001B00020A2BAB
:100A2B00C0E0C0F0C0D075D000C000C002C003C091
:100A3B0004C005C006C007758DFF758BFF7F017E57
:100A4B0000120AB2AF0EAE0D120950D007D006D06D
:100A5B0005D004D003D002D000D0D0D0F0D0E032FB
:03000B000209A245
:1009A200C0E0C083C082C0D075D000C000C005C006
:0309B20006C00775
:1009B500C2A9758C65758A0074092508F8E6FDAF2E
:1009C50008120B020508E508C394044003750800E6
:0209D500D2A9A5
:1009D700D007D006D005D000D0D0D082D083D0E0C9
:0109E70032DD
:0A0B1B00E4F509F50AF50BF50C22CC
:1009E80075180075190A120B1B120A6BE4F50DF540
:0109F8000EF0
:0909F900E4F51AF51BF51AF51BD3
:100A0200E4F51CF51DF51CF51D051DE51D7002051F
:070A12001C6404451C70F296
:100A1900051BE51B7002051AB488DEE51AB413D963
:020A290080CE7D
:03000000020800F3
:0C080000787FE4F6D8FD758124020847DB
:1008FB00BC000BBE0029EF8DF084FFADF022E4CCE1
:10090B00F875F008EF2FFFEE33FEEC33FCEE9DECA9
:10091B00984005FCEE9DFE0FD5F0E9E4CEFD22EDEF
:10092B00F8F5F0EE8420D21CFEADF075F008EF2F39
:10093B00FFED33FD4007985006D5F0F222C398FD2A
:05094B000FD5F0EA22C7
:10080C000209E8E493A3F8E493A34003F68001F211
:10081C0008DFF48029E493A3F85407240CC8C333ED
:10082C00C4540F4420C8834004F456800146F6DFBC
:10083C00E4800B0102040810204080900AF2E47E50
:10084C00019360BCA3FF543F30E509541FFEE493B1
:10085C00A360010ECF54C025E060A840B8E493A378
:10086C00FAE493A3F8E493A3C8C582C8CAC583CAA3
:10087C00F0A3C8C582C8CAC583CADFE9DEE780BE5B
:010B010000F3
:00000001FF
