:10000000020279E4F5F0F8F9EA4B6043EC4D701325
:1000100022EAC39C40137004EB9D400DEDC333FDF9
:10002000EC33FC05F0EC30E7E8EAC39C40067007CF
:10003000EB9D5003C38008C3EB9DFBEA9CFAD3E918
:1000400033F9E833F8ECC313FCED13FDD5F0DA8B8C
:10005000058A048802890322C000C001120003D06F
:1000600001D00022C000C001120003D001D0008CDA
:10007000028D0322EA30E707E4C39BFBE49AFAEC23
:1000800030E707E4C39DFDE49CFC22120093AA0420
:10009000AB0522C000C001EC6A33EA13C0E01200D5
:1000A00074120003D0E0C0E030E707E4C39BFBE438
:1000B0009AFAD0E030E607E4C39DFDE49CFCD00151
:1000C000D00022C000C001ED8BF0A4F8A9F0ED8AA9
:1000D000F0A429F9EC8BF0A429FAE8FBD001D000B8
:1000E00022E4F5D075812778207A07F608DAFC1229
:0F00F000026602000040792430191202780010D5
:10010000270F80338C208D218012C2908028C291CD
:100110008024C2928020C293801C801AA820A9212A
:10012000800FE91460E41460E51460E61460E78071
:1001300005E860EE80002280CB802CE4F520F521DC
:10014000E52124A8E52034E45002800280028016D4
:100150000521E52170020520E52124A8E52034E4ED
:100160005002800280EA2280D2802FE4F520F5211F
:10017000E52124F6E52034FF500280028002801938
:100180001201390521E52170020520E52124F6E55B
:100190002034FF5002800280E72280CF801FED24B0
:1001A000FFFA7408BA00028004C313DAFCF5228552
:1001B0002290759008EB9000F593F5802280DF8007
:1001C00062752000752100752201752300752401D8
:1001D0008C258D26E52424FBE5236480347F5002A2
:1001E00080028002803CAC21AD22AA25AB26120001
:1001F00093EBF520AB24AD2012019C7C007D0AAA74
:1002000021AB221200C38A218B220524E52470022F
:100210000523E52424FBE5236480347F500280021B
:1002200080C422809C803D75220075230AE4F5205D
:10023000F521801BE52124F5F582E5203400F583C6
:10024000E493F5801201390521E52170020520E5CE
:1002500022B52007E523B5210280065002800280E6
:10026000D380CA2280C1800FE4F520F5217B087D70
:0C0270000112019C80F72280EF0200E1E7
:00000001FF
