:100000000C9463000C948B000C948B000C948B006C
:100010000C948B000C948B000C948B000C948B0034
:100020000C948B000C948B000C948B000C948B0024
:100030000C948B000C948B000C948B000C948B0014
:100040000C94AF070C948B000C947D070C9457070D
:100050000C948B000C948B000C948B000C948B00F4
:100060000C948B000C948B000000000023002600F1
:10007000290000000008000201000003040700003E
:1000800000000000000000000000250028002B00F8
:1000900000000000240027002A00040404040404D3
:1000A0000404020202020202030303030303010227
:1000B00004081020408001020408102001020408F6
:1000C0001020F907850911241FBECFEFD8E0DEBF4D
:1000D000CDBF12E0A0E0B1E0E4E3F8E102C005909A
:1000E0000D92AC36B107D9F723E0ACE6B2E001C01F
:1000F0001D92A932B207E1F710E0C2E6D0E004C0D9
:100100002197FE010E94AD09C136D107C9F70E94AF
:1001100063080C940D0C0C94000090E0FC01E25577
:10012000FF4F2491FC01E656FF4F8491882399F0FC
:1001300090E0880F991FFC01E057FF4FA591B49103
:10014000FC01EA57FF4F859194918FB7F894EC9199
:10015000E22BEC938FBF0895EEE7F2E0A089B1891E
:1001600082E08C93A485B5851C92A685B7858FEC1B
:100170008C93108EA489B58986E08C93A289B3896B
:100180008C9180618C93A289B3898C9188608C93C7
:10019000A289B3898C9180688C930288F389E02DC1
:1001A00080818F7D80830895FC01248135816217D1
:1001B000730720F480819181009729F410927502D1
:1001C00085E792E00895860F971F0895CF92DF92FA
:1001D000EF92FF920F931F93CF93DF936C017A01FD
:1001E0008B01C0E0D0E0CE15DF0589F0D8016D911C
:1001F0008D01D601ED91FC910190F081E02DC601B9
:100200000995892B11F47E0102C02196ECCFC7011C
:10021000DF91CF911F910F91FF90EF90DF90CF90E2
:100220000895FC0144815581608171818EE792E0DF
:100230000C94E600FC01918D828D981761F0828DFF
:10024000DF01A80FB11D5D968C91928D9F5F9F730A
:10025000928F90E008958FEF9FEF0895FC01918DAC
:10026000828D981731F0828DE80FF11D858D90E019
:1002700008958FEF9FEF0895FC01918D228D892FB6
:1002800090E0805C9F4F821B91098F73992708959E
:100290008EE792E00E943C0121E0892B09F420E0E6
:1002A000822F0895FC01848DDF01A80FB11DA35A90
:1002B000BF4F2C91848D90E001968F739927848F86
:1002C000A689B7892C93A089B1898C9180648C937D
:1002D000938D848D981306C00288F389E02D808168
:1002E0008F7D80830895EF92FF920F931F93CF939A
:1002F000DF93EC0181E0888F9B8D8C8D981305C076
:10030000E889F989808185FD24C0F62E0B8D10E0E7
:100310000F5F1F4F0F731127E02E8C8DE8120CC05A
:100320000FB607FCFACFE889F989808185FFF5CF00
:10033000CE010E945201F1CF8B8DFE01E80FF11D1D
:10034000E35AFF4FF0820B8FEA89FB89808180623C
:1003500007C0EE89FF896083E889F989808180641C
:10036000808381E090E0DF91CF911F910F91FF900A
:10037000EF900895CF93DF93EC01888D8823C9F027
:10038000EA89FB89808185FD05C0A889B9898C919E
:1003900086FD0FC00FB607FCF5CF808185FFF2CF39
:1003A000A889B9898C9185FFEDCFCE010E945201B9
:1003B000E7CFDF91CF91089580E090E0892B29F07D
:1003C0000E94480181110C9400000895833081F04F
:1003D00028F4813099F08230A1F008958730A9F097
:1003E0008830B9F08430D1F4809180008F7D03C0D3
:1003F000809180008F7780938000089584B58F77F7
:1004000002C084B58F7D84BD08958091B0008F7740
:1004100003C08091B0008F7D8093B00008951F933A
:10042000CF93DF93282F30E0F901EE58FF4F8491EE
:10043000F901E255FF4FD491F901E656FF4FC491FF
:10044000CC23C9F0162F81110E94E601EC2FF0E0B9
:10045000EE0FFF1FEA57FF4FA591B4918FB7F894A5
:10046000111105C09C91ED2FE095E92302C0EC919C
:10047000ED2BEC938FBFDF91CF911F9108953FB784
:10048000F8948091710290917202A0917302B091E0
:10049000740226B5A89B05C02F3F19F00196A11D37
:1004A000B11D3FBFBA2FA92F982F8827820F911D0A
:1004B000A11DB11DBC01CD0142E0660F771F881F51
:1004C000991F4A95D1F70895EF92FF920F931F93CA
:1004D000CF93DF937C01D62FC8E007E010E060E007
:1004E000F70180810E940F02C8010197F1F76D2F7B
:1004F0006170F70181810E940F02C8010197F1F735
:10050000D69561E0F70180810E940F02C801019732
:10051000F1F7C15021F7DF91CF911F910F91FF901B
:10052000EF9008950F931F93CF93DF938C0160E0BA
:10053000FC0180810E940F02C7E0D0E0CE0101974C
:10054000F1F760E0F80181810E940F02CE0101976E
:10055000F1F761E0F80180810E940F022197F1F725
:1005600061E0F8018181DF91CF911F910F910C948F
:100570000F020F931F93CF93DF938C0161E0FC0177
:1005800081810E940F02C7E0D0E0CE010197F1F710
:1005900061E0F80180810E940F022197F1F760E08D
:1005A000F8018181DF91CF911F910F910C940F027F
:1005B000009769F0FC0101900020E9F73197AF0145
:1005C000481B590BBC018EE792E00C94E60080E0DA
:1005D00090E00895CF92DF92EF92FF920F931F93D6
:1005E000CF93DF93CDB7DEB7A5970FB6F894DEBFF4
:1005F0000FBECDBF9A01AB0160912403662349F180
:100600002AA33BA34CA35DA30E94110119A28E0152
:100610000F5D1F4F8AE0C82ED12CE12CF12C5DA17B
:100620004CA13BA12AA1CA01B901A70196010E94D0
:100630008B09605DF80162938F0121153105410539
:10064000510589F7CF010E94D80285ED91E00E9403
:10065000D802A5960FB6F894DEBF0FBECDBFDF91CE
:10066000CF911F910F91FF90EF90DF90CF90089561
:100670002091240321110C94D8020895FC01828159
:10068000882319F0CB010C94D8020895EF92FF92C1
:100690000F931F93CF93DF93EC0160E088810E945A
:1006A0000F028FE090E00197F1F790EDE92E97E0CF
:1006B000F92E298130E0F901EE58FF4F8491F901BC
:1006C000E255FF4F0491F901E656FF4F14911123B3
:1006D000A1F081110E94E601E12FF0E0EE0FFF1F73
:1006E000E859FF4FA591B491EC91E02331E020E06F
:1006F00009F430E0832F922F02C080E090E021E0E7
:10070000E21AF10839F467E271E0CE010E943E037B
:1007100080E010C0892B09F0CCCF61E088810E9475
:100720000F0287E090E00197F1F760E088810E9476
:100730000F0281E0DF91CF911F910F91FF90EF9019
:1007400008951F93CF93DF93EC01162FCE010E94E3
:10075000B902612FCE010E946402CE010E944603BD
:10076000811104C0CE010E949202F0CFCE01DF9130
:10077000CF911F910C9492020E94AA0BAF92BF924C
:10078000CF92DF92EF92FF920F931F93CF93DF935D
:10079000DC01CD90DC901197C114D10409F442C062
:1007A0001496CD91DC9115972097E1F18C015601BB
:1007B0007501BFEFAB1ABB0AF7018081082E000C50
:1007C000990B0E94CA0B892B99F72197CC0DDD1D3F
:1007D0008881082E000C990B0E94CA0B892B91F47A
:1007E000AE014F5F5F4F4E195F09D80115965C93BC
:1007F0004E931497CE14DF0450F4B701C6010E9443
:10080000AF0B05C0CE15DF0558F32197E1CFD80116
:10081000ED91FC91119714968D919C911597E80F8D
:10082000F91F1082DF91CF911F910F91FF90EF90F0
:10083000DF90CF90BF90AF9008950F931F93CF9309
:10084000DF93EC0188819981009729F02A813B810F
:100850002617370788F48B016F5F7F4F0E94E00AED
:10086000009761F0998388831B830A832C813D81E3
:10087000232B11F4FC01108281E001C080E0DF91A4
:10088000CF911F910F910895CF93DF93EC01888151
:100890009981009711F00E94480A198218821D82DE
:1008A0001C821B821A82DF91CF910895EF92FF92F2
:1008B0000F931F93CF93DF93EC01198218821B8251
:1008C0001A821D821C826115710521F18B01FB01C9
:1008D00001900020E9F731977F01E61AF70AB70186
:1008E0000E941D04811109C0CE01DF91CF911F919B
:1008F0000F91FF90EF900C944404FD82EC82B801BC
:1009000088819981DF91CF911F910F91FF90EF9096
:100910000C94C30BDF91CF911F910F91FF90EF903B
:100920000895EF92FF920F931F93CF93DF93EC0103
:10093000FB0186179707B9F0008111810115110598
:1009400039F0E480F580B7010E941D04811104C0D4
:10095000CE010E94440407C0FD82EC82B801888168
:1009600099810E94C30BCE01DF91CF911F910F910E
:10097000FF90EF900895FC01118210821382128281
:10098000158214820C949104FC01808191810C9455
:10099000480A3F924F925F926F927F928F929F92FE
:1009A000AF92BF92CF92DF92EF92FF920F931F937D
:1009B000CF93DF93CDB7DEB76B970FB6F894DEBF5A
:1009C0000FBECDBF7C01BC01CE010D960E94BB04C1
:1009D000CE010D960E94BE03B701CE0101960E9482
:1009E000BB046CE371E0CE0107960E94560480912F
:1009F0002403882361F0CE0107960E941101CE01E5
:100A000001960E94110185ED91E00E94D802CE016D
:100A100007960E94C404CE0101960E94C4046E0190
:100A200083E1C80ED11C86E0F60111928A95E9F7A0
:100A3000F70184819581892B19F48EE491E006C039
:100A400089899A89892B29F485E491E00E943803E9
:100A500012C060E070E0C7010E94D400FC018081F8
:100A60008E3209F045C0F70184819581019709F024
:100A70003FC080E88B8B86E092E00E94380360E400
:100A800080911F03909120030E94A10300911F03F6
:100A9000109120033E0199E1690E711C8BEDA82E87
:100AA0008EE2B82EC8010E94B90260ECC8010E9413
:100AB0006402C8010E944603811106C0C501019766
:100AC000F1F764E172E0CBC17601F70161917F013A
:100AD000C8010E946402C8010E944603882309F4E9
:100AE000B9C1E614F70489F7C8010E949202BEC199
:100AF000B701CE0107960E94BB04BE01695F7F4F1C
:100B0000CE0101960E94BB04CE0101960E94BE0355
:100B10008D819E81892B49F06B847C8480911D039B
:100B200090911E038615970514F010E03CC06114E7
:100B3000710471F00F8118856EE270E0C8010E94A7
:100B4000B80B009729F08017910711F411E02BC022
:100B5000A12CB12C10E0A614B7043CF7B501CE01CE
:100B600007960E94D400FC0180818E3271F4A1149A
:100B7000B10459F0B50161507109CE0107960E9488
:100B8000D400FC0180818E3209F41F5F812F90E038
:100B900020911D0330911E0328173907BCF2FFEF87
:100BA000AF1ABF0AD8CFCE0101960E94C404CE016D
:100BB00007960E94C404112309F44EC066ED71E04B
:100BC000CE0107960E945604E12CF12C80911D0362
:100BD00090911E03BE01695F7F4FE816F9065CF530
:100BE000CE0101960E94BB040D811E810E5F1F4F36
:100BF000B801CE0101960E941D04882309F452C158
:100C000029813A818D819E8167E572E0820F931F71
:100C10000E94C30B1E830D83BE016F5F7F4FCE0109
:100C200007960E949104CE0101960E94C4048FEFA2
:100C3000E81AF80ACBCFCE0101960E94BB04CE0180
:100C400001960E94C904CE0101960E94C404CE01FF
:100C500007960E94C4040AC1F701A480B580C501AB
:100C600001979A8F898F4C01990FAA08BB086CE5F0
:100C700071E0CE0101960E945604B501A401CE0197
:100C800001960E94EA02CE0101960E94C4046AE71E
:100C900071E0CE0101960E945604B501A401CE0177
:100CA00001960E94EA02CE0101960E94C404412CE2
:100CB000512C320100E010E090E8392E898D9A8D98
:100CC000841595050CF4D7CE87E891E00E9438038F
:100CD00063EE71E0CE0101960E945604B301A201B9
:100CE000CE0101960E94EA02CE0101960E94C40440
:100CF000698D7A8D64197509C7010E94D400FC01C1
:100D0000208168EA71E0CE0101962B8F0E94560483
:100D1000B501A4014419550966097709CE01019668
:100D20000E94EA02CE0101960E94C40461EC71E0C7
:100D3000CE0101960E9456042B8D422F220F550B97
:100D4000660B770BCE0101960E94EA02CE01019656
:100D50000E94C4042B8D222309F48DCE2E3219F566
:100D600087EC91E00E94380367ED71E0CE010196B7
:100D70000E945604B301A201CE0101960E94EA022C
:100D8000CE0101960E94C404F601E00FF11F80819C
:100D9000803839F40F5F1F4FF601E00FF11F808399
:100DA00038C0308236C080ED820F8A3038F4022E8F
:100DB000000C330BF901E952FF4F0AC08FE9820F93
:100DC000863040F4022E000C330BF901E055FF4F42
:100DD000808117C08FEB820F863038F4022E000C12
:100DE000330BF901E053FF4FF3CF822F8F7D8555F1
:100DF000823020F02D3221F480E403C08EE301C064
:100E000080E0F601E00FF11F9081892B80830F5F56
:100E10001F4FFFEF4F1A5F0A6F0A7F0A80911D0371
:100E200090911E03801791070CF425CE61EF71E0BD
:100E3000CE0101960E945604A801012E000C660BFB
:100E4000770BCE0101960E94EA02CE0101960E9424
:100E5000C40434CFC5010197F1F760E372E0C80123
:100E60000E943E03C8010E9492021CCECE010D9644
:100E70000E94C4046B960FB6F894DEBF0FBECDBFC0
:100E8000DF91CF911F910F91FF90EF90DF90CF9066
:100E9000BF90AF909F908F907F906F905F904F909A
:100EA0003F900895CE0101960E944404B5CE1F9252
:100EB0000F920FB60F9211242F933F934F935F938E
:100EC0006F937F938F939F93AF93BF93EF93FF9312
:100ED0008EE792E00E945201FF91EF91BF91AF9196
:100EE0009F918F917F916F915F914F913F912F9142
:100EF0000F900FBE0F901F9018951F920F920FB674
:100F00000F9211242F938F939F93EF93FF93E09170
:100F10008E02F0918F028081E0919402F09195020F
:100F200082FD12C09081809197028F5F8F73209114
:100F30009802821751F0E0919702F0E0E258FD4FDD
:100F4000958F8093970201C08081FF91EF919F91CF
:100F50008F912F910F900FBE0F901F9018951F9299
:100F60000F920FB60F9211242F933F938F939F935D
:100F7000AF93BF9380916D0290916E02A0916F022A
:100F8000B091700230916C0223E0230F2D3720F4D2
:100F90000196A11DB11D05C026E8230F0296A11DD3
:100FA000B11D20936C0280936D0290936E02A0930A
:100FB0006F02B09370028091710290917202A091C1
:100FC0007302B09174020196A11DB11D809371024C
:100FD00090937202A0937302B0937402BF91AF9189
:100FE0009F918F913F912F910F900FBE0F901F9067
:100FF0001895EF92FF920F931F93CF93DF93EEE735
:10100000F2E01382128288EE93E0A0E0B0E08483E5
:101010009583A683B7838BE191E09183808385ECF0
:1010200090E09587848784EC90E09787868780ECB2
:1010300090E0918B808B81EC90E0938B828B82ECA3
:1010400090E0958B848B86EC90E0978B868B118E4D
:10105000128E138E148E0BE113E080E1F80186836B
:1010600082E0E82EE7829CE0F92EF08684E080831F
:10107000118688E0818384E090E09383828383E01B
:1010800090E00E94B309EC01E882F98281E08A8352
:1010900082E00E948D0089810E948D0060E088813D
:1010A0000E940F0260E089810E940F02F801D5833F
:1010B000C4836CE8CE01DF91CF911F910F91FF9017
:1010C000EF900C94A103CF93DF93CDB7DEB72797B2
:1010D0000FB6F894DEBF0FBECDBF789484B58260A2
:1010E00084BD84B5816084BD85B5826085BD85B5CC
:1010F000816085BD80916E00816080936E0010924A
:1011000081008091810082608093810080918100C4
:101110008160809381008091800081608093800055
:101120008091B10084608093B1008091B0008160B3
:101130008093B00080917A00846080937A008091DF
:101140007A00826080937A0080917A008160809337
:101150007A0080917A00806880937A001092C100B2
:10116000109224038DE00E948D0060E08DE00E94CB
:101170000F028091240381110E94AC000E94AC00F8
:1011800061E08DE00E940F0266ED71E0CE010196F4
:101190000E945604CE0101960E94C904CE01019618
:1011A0000E94C40401E0C0907A02D0907B02E090DB
:1011B0007C02F0907D026C2D61708DE00E940F0228
:1011C000809100018823B9F027E0C216D104E10420
:1011D000F10470F48FEFC81AD80AE80AF80AC0922E
:1011E0007A02D0927B02E0927C02F0927D021DC0D6
:1011F000109200011AC080917A0290917B02A09116
:101200007C02B0917D020097A105B10561F00197C4
:10121000A109B10980937A0290937B02A0937C028A
:10122000B0937D0202C00093000161E572E0CE013F
:1012300001960E945604CE0101960E94C904CE0177
:1012400001960E94C4048091760290917702A09149
:101250007802B09179020196A11DB11D80937602AA
:1012600090937702A0937802B093790240917A022A
:10127000483008F047E040931B0310911C031068AE
:10128000142B6AE572E0CE0101964F830E9456044A
:101290004F8150E060E070E0CE0101960E94EA02CA
:1012A000CE0101960E94C404612F80911F0390918A
:1012B00020030E94A1030E943F024B015C0180E9D0
:1012C000C82EDD24D394E12CF12C0E943F02DC01D6
:1012D000CB0188199909AA09BB09883E9340A10549
:1012E000B10558F021E0C21AD108E108F10888EEF2
:1012F000880E83E0981EA11CB11CC114D104E10426
:10130000F10419F70E94DC014ECF80911F039091E8
:1013100020030C94480AA1E21A2EAA1BBB1BFD0154
:101320000DC0AA1FBB1FEE1FFF1FA217B307E407C4
:10133000F50720F0A21BB30BE40BF50B661F771F1C
:10134000881F991F1A9469F76095709580959095FC
:101350009B01AC01BD01CF010895EE0FFF1F059069
:10136000F491E02D0994CF93DF938230910510F42E
:1013700082E090E0E0912703F091280320E030E044
:10138000C0E0D0E0309711F14081518148175907F2
:10139000C0F04817590761F482819381209719F0B2
:1013A0009B838A832BC0909328038093270326C0B6
:1013B0002115310519F04217530718F49A01BE019F
:1013C000DF01EF010280F381E02DDCCF2115310533
:1013D00009F1281B390B2430310590F412968D91B8
:1013E0009C9113976115710521F0FB019383828312
:1013F00004C09093280380932703FD01329644C0D4
:10140000FD01E20FF31F81939193225031092D9337
:101410003C933AC02091250330912603232B41F4BD
:10142000209103013091040130932603209325037A
:1014300020910101309102012115310541F42DB7B0
:101440003EB74091050150910601241B350BE091F8
:101450002503F0912603E217F307A0F42E1B3F0BA0
:101460002817390778F0AC014E5F5F4F2417350716
:1014700048F04E0F5F1F509326034093250381933E
:10148000919302C0E0E0F0E0CF01DF91CF910895A9
:101490000F931F93CF93DF93009709F48CC0FC0147
:1014A00032971382128200912703109128030115AD
:1014B000110581F420813181820F931F2091250332
:1014C000309126032817390779F5F0932603E09326
:1014D000250371C0D80140E050E0AE17BF0750F4BB
:1014E00012962D913C911397AD012115310509F10B
:1014F000D901F3CF9D01DA013383228360817181A9
:10150000860F971F8217930769F4EC0128813981B0
:10151000260F371F2E5F3F4F318320838A819B81A7
:1015200093838283452B29F4F0932803E0932703C8
:1015300042C01396FC93EE931297ED014991599195
:101540009E01240F351FE217F30771F4808191810A
:10155000840F951F029611969C938E93828193819E
:1015600013969C938E931297E0E0F0E0D8011296C8
:101570008D919C911397009719F0F8018C01F6CF8B
:101580008D919C9198012E5F3F4F820F931F209168
:101590002503309126032817390769F4309729F479
:1015A000109228031092270302C013821282109314
:1015B000260300932503DF91CF911F910F9108958A
:1015C000A0E0B0E0E6EEFAE00C94DA0BEC01009754
:1015D00021F4CB010E94B309B8C0FC01E60FF71F4C
:1015E0009C0122503109E217F30708F4ACC0D9017D
:1015F0000D911C91119706171707B0F005301105D2
:1016000008F49FC0C80104978617970708F499C08B
:1016100002501109061B170B019311936D937C93D4
:10162000CF010E94480A8DC05B01A01AB10A4C018B
:10163000800E911EA0912703B091280340E050E056
:10164000E12CF12C109709F44AC0A815B905D1F581
:101650006D907C901197630182E0C80ED11CCA1472
:10166000DB0480F1A3014A195B096A0182E0C80E1C
:10167000D11C1296BC9012971396AC91B5E0CB1684
:10168000D10440F0B282A38351834083D9016D938A
:101690007C930AC00E5F1F4FC301800F911FF90199
:1016A00091838083EB2DFA2FE114F10431F0D701FF
:1016B0001396FC93EE93129744C0F0932803E093A3
:1016C00027033FC08D919C9111974817590708F443
:1016D000AC017D0112960D90BC91A02DB3CF8091ED
:1016E00025039091260388159905E1F446175707BD
:1016F000C8F48091010190910201009741F48DB7E7
:101700009EB74091050150910601841B950BE81787
:10171000F907C8F4F0932603E0932503F9017183D8
:1017200060830FC0CB010E94B3097C01009759F080
:10173000A801BE010E94AF0BCE010E94480AC7015A
:1017400004C0CE0102C080E090E0CDB7DEB7EEE08D
:101750000C94F60B81E090E0F8940C940D0CFB01D6
:10176000DC0102C001900D9241505040D8F708951D
:10177000FC018191861721F08823D9F799270895D4
:101780003197CF010895FB01DC0101900D920020FB
:10179000E1F7089591110C94D30B803219F0895020
:1017A0008550C8F708959927882708952F923F926A
:1017B0004F925F926F927F928F929F92AF92BF9261
:1017C000CF92DF92EF92FF920F931F93CF93DF930D
:1017D000CDB7DEB7CA1BDB0B0FB6F894DEBF0FBE6A
:1017E000CDBF09942A88398848885F846E847D84B7
:1017F0008C849B84AA84B984C884DF80EE80FD80B9
:101800000C811B81AA81B981CE0FD11D0FB6F8942E
:10181000DEBF0FBECDBFED01089510E0C2E6D0E0FF
:1018200004C0FE010E94AD092196C336D107C9F755
:04183000F894FFCF5A
:10183400010000290380003F065B4F666D7D077F32
:101844006F777C395E7971000000007301E6003C1B
:10185400011A012E01BA0161636B20776169746515
:101864006420746F6F206C6F6E670A006469737014
:101874006C617920007472696D6D65642C20656DEE
:1018840070747920737472696E670A00656E6449B6
:101894006E646578206973207374722E6C656E674C
:1018A40074682829202D20312000656E64496E64F7
:1018B400657820697320003D3D3D3D3D3D3D3D3D06
:1018C4003D3D3D3D3D3D3D3D3D3D3D3D3D3D3D3D44
:1018D4003D3D3D3D3D3D0A00656E64496E6465785D
:1018E400202D20737472496E6465782020203D2079
:1018F4000063206973200077652068617665206144
:1019040020633D3D2E0A002068617320646F7420BB
:10191400616E6420737472496E6465782069732003
:10192400006269746D61704172726179496E6465B7
:101934007820697320007374617274696E6720691A
:1019440032630A0069326357726974654279746557
:10195400206661696C65642C2072657472790A0072
:101964006932635772697465427974654172726150
:1019740079206661696C65642C2072657472790AD9
:1019840000382E382E382E382E006272696768743B
:0C1994006E657373202020697320000032
:107E0000112484B714BE81FFF0D085E080938100F7
:107E100082E08093C00088E18093C10086E0809377
:107E2000C20080E18093C4008EE0C9D0259A86E02C
:107E300020E33CEF91E0309385002093840096BBD3
:107E4000B09BFECF1D9AA8958150A9F7CC24DD24C4
:107E500088248394B5E0AB2EA1E19A2EF3E0BF2EE7
:107E6000A2D0813461F49FD0082FAFD0023811F036
:107E7000013811F484E001C083E08DD089C08234E0
:107E800011F484E103C0853419F485E0A6D080C0E4
:107E9000853579F488D0E82EFF2485D0082F10E0AE
:107EA000102F00270E291F29000F111F8ED06801E7
:107EB0006FC0863521F484E090D080E0DECF843638
:107EC00009F040C070D06FD0082F6DD080E0C81688
:107ED00080E7D80618F4F601B7BEE895C0E0D1E017
:107EE00062D089930C17E1F7F0E0CF16F0E7DF06D8
:107EF00018F0F601B7BEE89568D007B600FCFDCFD4
:107F0000A601A0E0B1E02C9130E011968C91119780
:107F100090E0982F8827822B932B1296FA010C0160
:107F200087BEE89511244E5F5F4FF1E0A038BF0790
:107F300051F7F601A7BEE89507B600FCFDCF97BE46
:107F4000E89526C08437B1F42ED02DD0F82E2BD052
:107F50003CD0F601EF2C8F010F5F1F4F84911BD097
:107F6000EA94F801C1F70894C11CD11CFA94CF0C13
:107F7000D11C0EC0853739F428D08EE10CD085E9AC
:107F80000AD08FE07ACF813511F488E018D01DD067
:107F900080E101D065CF982F8091C00085FFFCCF94
:107FA0009093C60008958091C00087FFFCCF809118
:107FB000C00084FD01C0A8958091C6000895E0E648
:107FC000F0E098E1908380830895EDDF803219F02E
:107FD00088E0F5DFFFCF84E1DECF1F93182FE3DFCA
:107FE0001150E9F7F2DF1F91089580E0E8DFEE27F6
:047FF000FF270994CA
:027FFE00040479
:0400000300007E007B
:00000001FF
